{
  "_format": "hh-sol-artifact-1",
  "contractName": "epicNFT",
  "sourceName": "contracts/contract_structure.sol",
  "abi": [
    {
      "inputs": [],
      "stateMutability": "nonpayable",
      "type": "constructor"
    },
    {
      "anonymous": false,
      "inputs": [
        {
          "indexed": true,
          "internalType": "address",
          "name": "owner",
          "type": "address"
        },
        {
          "indexed": true,
          "internalType": "address",
          "name": "approved",
          "type": "address"
        },
        {
          "indexed": true,
          "internalType": "uint256",
          "name": "tokenId",
          "type": "uint256"
        }
      ],
      "name": "Approval",
      "type": "event"
    },
    {
      "anonymous": false,
      "inputs": [
        {
          "indexed": true,
          "internalType": "address",
          "name": "owner",
          "type": "address"
        },
        {
          "indexed": true,
          "internalType": "address",
          "name": "operator",
          "type": "address"
        },
        {
          "indexed": false,
          "internalType": "bool",
          "name": "approved",
          "type": "bool"
        }
      ],
      "name": "ApprovalForAll",
      "type": "event"
    },
    {
      "anonymous": false,
      "inputs": [
        {
          "indexed": true,
          "internalType": "address",
          "name": "from",
          "type": "address"
        },
        {
          "indexed": true,
          "internalType": "address",
          "name": "to",
          "type": "address"
        },
        {
          "indexed": true,
          "internalType": "uint256",
          "name": "tokenId",
          "type": "uint256"
        }
      ],
      "name": "Transfer",
      "type": "event"
    },
    {
      "inputs": [
        {
          "internalType": "address",
          "name": "to",
          "type": "address"
        },
        {
          "internalType": "uint256",
          "name": "tokenId",
          "type": "uint256"
        }
      ],
      "name": "approve",
      "outputs": [],
      "stateMutability": "nonpayable",
      "type": "function"
    },
    {
      "inputs": [
        {
          "internalType": "address",
          "name": "owner",
          "type": "address"
        }
      ],
      "name": "balanceOf",
      "outputs": [
        {
          "internalType": "uint256",
          "name": "",
          "type": "uint256"
        }
      ],
      "stateMutability": "view",
      "type": "function"
    },
    {
      "inputs": [
        {
          "internalType": "uint256",
          "name": "tokenId",
          "type": "uint256"
        }
      ],
      "name": "getApproved",
      "outputs": [
        {
          "internalType": "address",
          "name": "",
          "type": "address"
        }
      ],
      "stateMutability": "view",
      "type": "function"
    },
    {
      "inputs": [
        {
          "internalType": "address",
          "name": "owner",
          "type": "address"
        },
        {
          "internalType": "address",
          "name": "operator",
          "type": "address"
        }
      ],
      "name": "isApprovedForAll",
      "outputs": [
        {
          "internalType": "bool",
          "name": "",
          "type": "bool"
        }
      ],
      "stateMutability": "view",
      "type": "function"
    },
    {
      "inputs": [],
      "name": "mintNFT",
      "outputs": [],
      "stateMutability": "nonpayable",
      "type": "function"
    },
    {
      "inputs": [],
      "name": "name",
      "outputs": [
        {
          "internalType": "string",
          "name": "",
          "type": "string"
        }
      ],
      "stateMutability": "view",
      "type": "function"
    },
    {
      "inputs": [
        {
          "internalType": "uint256",
          "name": "tokenId",
          "type": "uint256"
        }
      ],
      "name": "ownerOf",
      "outputs": [
        {
          "internalType": "address",
          "name": "",
          "type": "address"
        }
      ],
      "stateMutability": "view",
      "type": "function"
    },
    {
      "inputs": [
        {
          "internalType": "address",
          "name": "from",
          "type": "address"
        },
        {
          "internalType": "address",
          "name": "to",
          "type": "address"
        },
        {
          "internalType": "uint256",
          "name": "tokenId",
          "type": "uint256"
        }
      ],
      "name": "safeTransferFrom",
      "outputs": [],
      "stateMutability": "nonpayable",
      "type": "function"
    },
    {
      "inputs": [
        {
          "internalType": "address",
          "name": "from",
          "type": "address"
        },
        {
          "internalType": "address",
          "name": "to",
          "type": "address"
        },
        {
          "internalType": "uint256",
          "name": "tokenId",
          "type": "uint256"
        },
        {
          "internalType": "bytes",
          "name": "_data",
          "type": "bytes"
        }
      ],
      "name": "safeTransferFrom",
      "outputs": [],
      "stateMutability": "nonpayable",
      "type": "function"
    },
    {
      "inputs": [
        {
          "internalType": "address",
          "name": "operator",
          "type": "address"
        },
        {
          "internalType": "bool",
          "name": "approved",
          "type": "bool"
        }
      ],
      "name": "setApprovalForAll",
      "outputs": [],
      "stateMutability": "nonpayable",
      "type": "function"
    },
    {
      "inputs": [
        {
          "internalType": "bytes4",
          "name": "interfaceId",
          "type": "bytes4"
        }
      ],
      "name": "supportsInterface",
      "outputs": [
        {
          "internalType": "bool",
          "name": "",
          "type": "bool"
        }
      ],
      "stateMutability": "view",
      "type": "function"
    },
    {
      "inputs": [],
      "name": "symbol",
      "outputs": [
        {
          "internalType": "string",
          "name": "",
          "type": "string"
        }
      ],
      "stateMutability": "view",
      "type": "function"
    },
    {
      "inputs": [
        {
          "internalType": "uint256",
          "name": "tokenId",
          "type": "uint256"
        }
      ],
      "name": "tokenURI",
      "outputs": [
        {
          "internalType": "string",
          "name": "",
          "type": "string"
        }
      ],
      "stateMutability": "view",
      "type": "function"
    },
    {
      "inputs": [
        {
          "internalType": "address",
          "name": "from",
          "type": "address"
        },
        {
          "internalType": "address",
          "name": "to",
          "type": "address"
        },
        {
          "internalType": "uint256",
          "name": "tokenId",
          "type": "uint256"
        }
      ],
      "name": "transferFrom",
      "outputs": [],
      "stateMutability": "nonpayable",
      "type": "function"
    }
  ],
  "bytecode": "0x60806040523480156200001157600080fd5b506040805180820182526009815268199b1bddd95c93919560ba1b60208083019182528351808501909452600484526323262ba960e11b9084015281519192916200005f9160009162000129565b5080516200007590600190602084019062000129565b505050620000b46040518060400160405280600e81526020016d546f6b656e20637265617465642160901b815250620000ba60201b620007f81760201c565b62000262565b6200010581604051602401620000d19190620001cf565b60408051601f198184030181529190526020810180516001600160e01b0390811663104c13eb60e21b179091526200010816565b50565b80516a636f6e736f6c652e6c6f67602083016000808483855afa5050505050565b828054620001379062000225565b90600052602060002090601f0160209004810192826200015b5760008555620001a6565b82601f106200017657805160ff1916838001178555620001a6565b82800160010185558215620001a6579182015b82811115620001a657825182559160200191906001019062000189565b50620001b4929150620001b8565b5090565b5b80821115620001b45760008155600101620001b9565b6000602080835283518082850152825b81811015620001fd57858101830151858201604001528201620001df565b818111156200020f5783604083870101525b50601f01601f1916929092016040019392505050565b6002810460018216806200023a57607f821691505b602082108114156200025c57634e487b7160e01b600052602260045260246000fd5b50919050565b611df780620002726000396000f3fe608060405234801561001057600080fd5b50600436106100ea5760003560e01c80636352211e1161008c578063a22cb46511610066578063a22cb465146101cb578063b88d4fde146101de578063c87b56dd146101f1578063e985e9c514610204576100ea565b80636352211e1461019057806370a08231146101a357806395d89b41146101c3576100ea565b8063095ea7b3116100c8578063095ea7b31461014d57806314f710fe1461016257806323b872dd1461016a57806342842e0e1461017d576100ea565b806301ffc9a7146100ef57806306fdde0314610118578063081812fc1461012d575b600080fd5b6101026100fd366004611477565b610217565b60405161010f919061169e565b60405180910390f35b610120610291565b60405161010f91906116a9565b61014061013b3660046114af565b610323565b60405161010f919061164e565b61016061015b36600461144e565b61036f565b005b610160610407565b61016061017836600461130d565b6104c1565b61016061018b36600461130d565b6104f9565b61014061019e3660046114af565b610514565b6101b66101b13660046112c1565b610549565b60405161010f9190611c28565b61012061058d565b6101606101d9366004611414565b61059c565b6101606101ec366004611348565b61066a565b6101206101ff3660046114af565b6106a9565b6101026102123660046112db565b6107ca565b60006001600160e01b031982167f80ac58cd00000000000000000000000000000000000000000000000000000000148061027a57506001600160e01b031982167f5b5e139f00000000000000000000000000000000000000000000000000000000145b8061028957506102898261086c565b90505b919050565b6060600080546102a090611cbf565b80601f01602080910402602001604051908101604052809291908181526020018280546102cc90611cbf565b80156103195780601f106102ee57610100808354040283529160200191610319565b820191906000526020600020905b8154815290600101906020018083116102fc57829003601f168201915b5050505050905090565b600061032e8261089e565b6103535760405162461bcd60e51b815260040161034a90611a68565b60405180910390fd5b506000908152600460205260409020546001600160a01b031690565b600061037a82610514565b9050806001600160a01b0316836001600160a01b031614156103ae5760405162461bcd60e51b815260040161034a90611b6e565b806001600160a01b03166103c06108bb565b6001600160a01b031614806103dc57506103dc816102126108bb565b6103f85760405162461bcd60e51b815260040161034a90611862565b61040283836108bf565b505050565b6000610413600761093a565b9050600061043d60405160200161042990611522565b60405160208183030381529060405261093e565b90506000816040516020016104529190611609565b604051602081830303815290604052905061046d3384610ae9565b6104778382610b07565b6104b76040518060400160405280601b81526020017f494420257320686173206265656e206d696e74656420746f20257300000000008152508433610b4b565b6104026007610bc0565b6104d26104cc6108bb565b82610bc9565b6104ee5760405162461bcd60e51b815260040161034a90611bcb565b610402838383610c46565b6104028383836040518060200160405280600081525061066a565b6000818152600260205260408120546001600160a01b0316806102895760405162461bcd60e51b815260040161034a9061191c565b60006001600160a01b0382166105715760405162461bcd60e51b815260040161034a906118bf565b506001600160a01b031660009081526003602052604090205490565b6060600180546102a090611cbf565b6105a46108bb565b6001600160a01b0316826001600160a01b031614156105d55760405162461bcd60e51b815260040161034a906117df565b80600560006105e26108bb565b6001600160a01b03908116825260208083019390935260409182016000908120918716808252919093529120805460ff1916921515929092179091556106266108bb565b6001600160a01b03167f17307eab39ab6107e8899845ad3d59bd9653f200f220920489ca2b5937696c318360405161065e919061169e565b60405180910390a35050565b61067b6106756108bb565b83610bc9565b6106975760405162461bcd60e51b815260040161034a90611bcb565b6106a384848484610d80565b50505050565b60606106b48261089e565b6106d05760405162461bcd60e51b815260040161034a90611a0b565b600082815260066020526040812080546106e990611cbf565b80601f016020809104026020016040519081016040528092919081815260200182805461071590611cbf565b80156107625780601f1061073757610100808354040283529160200191610762565b820191906000526020600020905b81548152906001019060200180831161074557829003601f168201915b505050505090506000610773610db3565b90508051600014156107875750905061028c565b8151156107b95780826040516020016107a19291906114f3565b6040516020818303038152906040529250505061028c565b6107c284610dc5565b949350505050565b6001600160a01b03918216600090815260056020908152604080832093909416825291909152205460ff1690565b6108698160405160240161080c91906116a9565b60408051601f198184030181529190526020810180517bffffffffffffffffffffffffffffffffffffffffffffffffffffffff167f41304fac00000000000000000000000000000000000000000000000000000000179052610e48565b50565b6001600160e01b031981167f01ffc9a70000000000000000000000000000000000000000000000000000000014919050565b6000908152600260205260409020546001600160a01b0316151590565b3390565b6000818152600460205260409020805473ffffffffffffffffffffffffffffffffffffffff19166001600160a01b038416908117909155819061090182610514565b6001600160a01b03167f8c5be1e5ebec7d5bd14f71427d1e84f3dd0314c0f7b2291e5b200ac8c7c3b92560405160405180910390a45050565b5490565b80516060908061095e57505060408051602081019091526000815261028c565b6000600361096d836002611c31565b6109779190611c49565b610982906004611c5d565b90506000610991826020611c31565b67ffffffffffffffff8111156109b757634e487b7160e01b600052604160045260246000fd5b6040519080825280601f01601f1916602001820160405280156109e1576020820181803683370190505b5090506000604051806060016040528060408152602001611d82604091399050600181016020830160005b86811015610a6d576003818a01810151603f601282901c8116860151600c83901c8216870151600684901c831688015192909316870151600891821b60ff94851601821b92841692909201901b91160160e01b835260049092019101610a0c565b506003860660018114610a875760028114610ab357610adb565b7f3d3d000000000000000000000000000000000000000000000000000000000000600119830152610adb565b7f3d000000000000000000000000000000000000000000000000000000000000006000198301525b505050918152949350505050565b610b03828260405180602001604052806000815250610e69565b5050565b610b108261089e565b610b2c5760405162461bcd60e51b815260040161034a90611979565b6000828152600660209081526040909120825161040292840190611211565b610402838383604051602401610b63939291906116bc565b60408051601f198184030181529190526020810180517bffffffffffffffffffffffffffffffffffffffffffffffffffffffff167fe3849f7900000000000000000000000000000000000000000000000000000000179052610e48565b80546001019055565b6000610bd48261089e565b610bf05760405162461bcd60e51b815260040161034a90611816565b6000610bfb83610514565b9050806001600160a01b0316846001600160a01b03161480610c365750836001600160a01b0316610c2b84610323565b6001600160a01b0316145b806107c257506107c281856107ca565b826001600160a01b0316610c5982610514565b6001600160a01b031614610c7f5760405162461bcd60e51b815260040161034a90611ab4565b6001600160a01b038216610ca55760405162461bcd60e51b815260040161034a90611782565b610cb0838383610402565b610cbb6000826108bf565b6001600160a01b0383166000908152600360205260408120805460019290610ce4908490611c7c565b90915550506001600160a01b0382166000908152600360205260408120805460019290610d12908490611c31565b9091555050600081815260026020526040808220805473ffffffffffffffffffffffffffffffffffffffff19166001600160a01b0386811691821790925591518493918716917fddf252ad1be2c89b69c2b068fc378daa952ba7f163c4a11628f55a4df523b3ef91a4505050565b610d8b848484610c46565b610d9784848484610e9c565b6106a35760405162461bcd60e51b815260040161034a906116ee565b60408051602081019091526000815290565b6060610dd08261089e565b610dec5760405162461bcd60e51b815260040161034a90611b11565b6000610df6610db3565b90506000815111610e165760405180602001604052806000815250610e41565b80610e2084610fd0565b604051602001610e319291906114f3565b6040516020818303038152906040525b9392505050565b80516a636f6e736f6c652e6c6f67602083016000808483855afa5050505050565b610e73838361111f565b610e806000848484610e9c565b6104025760405162461bcd60e51b815260040161034a906116ee565b6000610eb0846001600160a01b031661120b565b15610fc557836001600160a01b031663150b7a02610ecc6108bb565b8786866040518563ffffffff1660e01b8152600401610eee9493929190611662565b602060405180830381600087803b158015610f0857600080fd5b505af1925050508015610f38575060408051601f3d908101601f19168201909252610f3591810190611493565b60015b610f92573d808015610f66576040519150601f19603f3d011682016040523d82523d6000602084013e610f6b565b606091505b508051610f8a5760405162461bcd60e51b815260040161034a906116ee565b805181602001fd5b6001600160e01b0319167f150b7a02000000000000000000000000000000000000000000000000000000001490506107c2565b506001949350505050565b606081611011575060408051808201909152600181527f3000000000000000000000000000000000000000000000000000000000000000602082015261028c565b8160005b811561103b578061102581611cfa565b91506110349050600a83611c49565b9150611015565b60008167ffffffffffffffff81111561106457634e487b7160e01b600052604160045260246000fd5b6040519080825280601f01601f19166020018201604052801561108e576020820181803683370190505b5090505b84156107c2576110a3600183611c7c565b91506110b0600a86611d15565b6110bb906030611c31565b60f81b8183815181106110de57634e487b7160e01b600052603260045260246000fd5b60200101907effffffffffffffffffffffffffffffffffffffffffffffffffffffffffffff1916908160001a905350611118600a86611c49565b9450611092565b6001600160a01b0382166111455760405162461bcd60e51b815260040161034a906119d6565b61114e8161089e565b1561116b5760405162461bcd60e51b815260040161034a9061174b565b61117760008383610402565b6001600160a01b03821660009081526003602052604081208054600192906111a0908490611c31565b9091555050600081815260026020526040808220805473ffffffffffffffffffffffffffffffffffffffff19166001600160a01b03861690811790915590518392907fddf252ad1be2c89b69c2b068fc378daa952ba7f163c4a11628f55a4df523b3ef908290a45050565b3b151590565b82805461121d90611cbf565b90600052602060002090601f01602090048101928261123f5760008555611285565b82601f1061125857805160ff1916838001178555611285565b82800160010185558215611285579182015b8281111561128557825182559160200191906001019061126a565b50611291929150611295565b5090565b5b808211156112915760008155600101611296565b80356001600160a01b038116811461028c57600080fd5b6000602082840312156112d2578081fd5b610e41826112aa565b600080604083850312156112ed578081fd5b6112f6836112aa565b9150611304602084016112aa565b90509250929050565b600080600060608486031215611321578081fd5b61132a846112aa565b9250611338602085016112aa565b9150604084013590509250925092565b6000806000806080858703121561135d578081fd5b611366856112aa565b935060206113758187016112aa565b935060408601359250606086013567ffffffffffffffff80821115611398578384fd5b818801915088601f8301126113ab578384fd5b8135818111156113bd576113bd611d55565b604051601f8201601f19168101850183811182821017156113e0576113e0611d55565b60405281815283820185018b10156113f6578586fd5b81858501868301379081019093019390935250939692955090935050565b60008060408385031215611426578182fd5b61142f836112aa565b915060208301358015158114611443578182fd5b809150509250929050565b60008060408385031215611460578182fd5b611469836112aa565b946020939093013593505050565b600060208284031215611488578081fd5b8135610e4181611d6b565b6000602082840312156114a4578081fd5b8151610e4181611d6b565b6000602082840312156114c0578081fd5b5035919050565b600081518084526114df816020860160208601611c93565b601f01601f19169290920160200192915050565b60008351611505818460208801611c93565b835190830190611519818360208801611c93565b01949350505050565b7f7b226e616d65223a20220000000000000000000000000000000000000000000081527f4e46545f4e414d45000000000000000000000000000000000000000000000000600a8201527f222c20226465736372697074696f6e223a20220000000000000000000000000060128201527f52414e444f4d5f4e46545f4445534352495054494f4e2e00000000000000000060258201527f222c2022696d616765223a2022495046535f4c494e4b5f4f525f454e434f4445603c8201527f445f444154415f4f525f57484154455645525f415050524f505249415445227d605c820152607c0190565b60007f646174613a6170706c69636174696f6e2f6a736f6e3b6261736536342c0000008252825161164181601d850160208701611c93565b91909101601d0192915050565b6001600160a01b0391909116815260200190565b60006001600160a01b0380871683528086166020840152508360408301526080606083015261169460808301846114c7565b9695505050505050565b901515815260200190565b600060208252610e4160208301846114c7565b6000606082526116cf60608301866114c7565b90508360208301526001600160a01b0383166040830152949350505050565b60208082526032908201527f4552433732313a207472616e7366657220746f206e6f6e20455243373231526560408201527f63656976657220696d706c656d656e7465720000000000000000000000000000606082015260800190565b6020808252601c908201527f4552433732313a20746f6b656e20616c7265616479206d696e74656400000000604082015260600190565b60208082526024908201527f4552433732313a207472616e7366657220746f20746865207a65726f2061646460408201527f7265737300000000000000000000000000000000000000000000000000000000606082015260800190565b60208082526019908201527f4552433732313a20617070726f766520746f2063616c6c657200000000000000604082015260600190565b6020808252602c908201527f4552433732313a206f70657261746f7220717565727920666f72206e6f6e657860408201526b34b9ba32b73a103a37b5b2b760a11b606082015260800190565b60208082526038908201527f4552433732313a20617070726f76652063616c6c6572206973206e6f74206f7760408201527f6e6572206e6f7220617070726f76656420666f7220616c6c0000000000000000606082015260800190565b6020808252602a908201527f4552433732313a2062616c616e636520717565727920666f7220746865207a6560408201527f726f206164647265737300000000000000000000000000000000000000000000606082015260800190565b60208082526029908201527f4552433732313a206f776e657220717565727920666f72206e6f6e657869737460408201527f656e7420746f6b656e0000000000000000000000000000000000000000000000606082015260800190565b6020808252602e908201527f45524337323155524953746f726167653a2055524920736574206f66206e6f6e60408201527f6578697374656e7420746f6b656e000000000000000000000000000000000000606082015260800190565b6020808252818101527f4552433732313a206d696e7420746f20746865207a65726f2061646472657373604082015260600190565b60208082526031908201527f45524337323155524953746f726167653a2055524920717565727920666f722060408201527f6e6f6e6578697374656e7420746f6b656e000000000000000000000000000000606082015260800190565b6020808252602c908201527f4552433732313a20617070726f76656420717565727920666f72206e6f6e657860408201526b34b9ba32b73a103a37b5b2b760a11b606082015260800190565b60208082526029908201527f4552433732313a207472616e73666572206f6620746f6b656e2074686174206960408201527f73206e6f74206f776e0000000000000000000000000000000000000000000000606082015260800190565b6020808252602f908201527f4552433732314d657461646174613a2055524920717565727920666f72206e6f60408201527f6e6578697374656e7420746f6b656e0000000000000000000000000000000000606082015260800190565b60208082526021908201527f4552433732313a20617070726f76616c20746f2063757272656e74206f776e6560408201527f7200000000000000000000000000000000000000000000000000000000000000606082015260800190565b60208082526031908201527f4552433732313a207472616e736665722063616c6c6572206973206e6f74206f60408201527f776e6572206e6f7220617070726f766564000000000000000000000000000000606082015260800190565b90815260200190565b60008219821115611c4457611c44611d29565b500190565b600082611c5857611c58611d3f565b500490565b6000816000190483118215151615611c7757611c77611d29565b500290565b600082821015611c8e57611c8e611d29565b500390565b60005b83811015611cae578181015183820152602001611c96565b838111156106a35750506000910152565b600281046001821680611cd357607f821691505b60208210811415611cf457634e487b7160e01b600052602260045260246000fd5b50919050565b6000600019821415611d0e57611d0e611d29565b5060010190565b600082611d2457611d24611d3f565b500690565b634e487b7160e01b600052601160045260246000fd5b634e487b7160e01b600052601260045260246000fd5b634e487b7160e01b600052604160045260246000fd5b6001600160e01b03198116811461086957600080fdfe4142434445464748494a4b4c4d4e4f505152535455565758595a6162636465666768696a6b6c6d6e6f707172737475767778797a303132333435363738392b2fa26469706673582212204886863a6de8e17341b44b4d75536203db05f5e2d2c4e49ca50245b5e6ccc41764736f6c63430008000033",
  "linkReferences": {},
  "deployedLinkReferences": {}
}