{
  "_format": "hh-sol-artifact-1",
  "contractName": "UNCHAIN_PASSPORT",
  "sourceName": "contracts/UNCHAINNFT.sol",
  "abi": [
    {
      "inputs": [],
      "stateMutability": "nonpayable",
      "type": "constructor"
    },
    {
      "anonymous": false,
      "inputs": [
        {
          "indexed": true,
          "internalType": "address",
          "name": "owner",
          "type": "address"
        },
        {
          "indexed": true,
          "internalType": "address",
          "name": "approved",
          "type": "address"
        },
        {
          "indexed": true,
          "internalType": "uint256",
          "name": "tokenId",
          "type": "uint256"
        }
      ],
      "name": "Approval",
      "type": "event"
    },
    {
      "anonymous": false,
      "inputs": [
        {
          "indexed": true,
          "internalType": "address",
          "name": "owner",
          "type": "address"
        },
        {
          "indexed": true,
          "internalType": "address",
          "name": "operator",
          "type": "address"
        },
        {
          "indexed": false,
          "internalType": "bool",
          "name": "approved",
          "type": "bool"
        }
      ],
      "name": "ApprovalForAll",
      "type": "event"
    },
    {
      "anonymous": false,
      "inputs": [
        {
          "indexed": true,
          "internalType": "bytes32",
          "name": "role",
          "type": "bytes32"
        },
        {
          "indexed": true,
          "internalType": "bytes32",
          "name": "previousAdminRole",
          "type": "bytes32"
        },
        {
          "indexed": true,
          "internalType": "bytes32",
          "name": "newAdminRole",
          "type": "bytes32"
        }
      ],
      "name": "RoleAdminChanged",
      "type": "event"
    },
    {
      "anonymous": false,
      "inputs": [
        {
          "indexed": true,
          "internalType": "bytes32",
          "name": "role",
          "type": "bytes32"
        },
        {
          "indexed": true,
          "internalType": "address",
          "name": "account",
          "type": "address"
        },
        {
          "indexed": true,
          "internalType": "address",
          "name": "sender",
          "type": "address"
        }
      ],
      "name": "RoleGranted",
      "type": "event"
    },
    {
      "anonymous": false,
      "inputs": [
        {
          "indexed": true,
          "internalType": "bytes32",
          "name": "role",
          "type": "bytes32"
        },
        {
          "indexed": true,
          "internalType": "address",
          "name": "account",
          "type": "address"
        },
        {
          "indexed": true,
          "internalType": "address",
          "name": "sender",
          "type": "address"
        }
      ],
      "name": "RoleRevoked",
      "type": "event"
    },
    {
      "anonymous": false,
      "inputs": [
        {
          "indexed": true,
          "internalType": "address",
          "name": "from",
          "type": "address"
        },
        {
          "indexed": true,
          "internalType": "address",
          "name": "to",
          "type": "address"
        },
        {
          "indexed": true,
          "internalType": "uint256",
          "name": "tokenId",
          "type": "uint256"
        }
      ],
      "name": "Transfer",
      "type": "event"
    },
    {
      "anonymous": false,
      "inputs": [
        {
          "indexed": false,
          "internalType": "address",
          "name": "sender",
          "type": "address"
        },
        {
          "indexed": false,
          "internalType": "address",
          "name": "recipient",
          "type": "address"
        },
        {
          "indexed": false,
          "internalType": "uint256",
          "name": "tokenId",
          "type": "uint256"
        }
      ],
      "name": "newTokenMinted",
      "type": "event"
    },
    {
      "inputs": [],
      "name": "ADMIN_ROLE",
      "outputs": [
        {
          "internalType": "bytes32",
          "name": "",
          "type": "bytes32"
        }
      ],
      "stateMutability": "view",
      "type": "function"
    },
    {
      "inputs": [],
      "name": "DEFAULT_ADMIN_ROLE",
      "outputs": [
        {
          "internalType": "bytes32",
          "name": "",
          "type": "bytes32"
        }
      ],
      "stateMutability": "view",
      "type": "function"
    },
    {
      "inputs": [],
      "name": "MINTER_ROLE",
      "outputs": [
        {
          "internalType": "bytes32",
          "name": "",
          "type": "bytes32"
        }
      ],
      "stateMutability": "view",
      "type": "function"
    },
    {
      "inputs": [
        {
          "internalType": "address",
          "name": "to",
          "type": "address"
        },
        {
          "internalType": "uint256",
          "name": "tokenId",
          "type": "uint256"
        }
      ],
      "name": "approve",
      "outputs": [],
      "stateMutability": "nonpayable",
      "type": "function"
    },
    {
      "inputs": [
        {
          "internalType": "address",
          "name": "owner",
          "type": "address"
        }
      ],
      "name": "balanceOf",
      "outputs": [
        {
          "internalType": "uint256",
          "name": "",
          "type": "uint256"
        }
      ],
      "stateMutability": "view",
      "type": "function"
    },
    {
      "inputs": [],
      "name": "contractURI",
      "outputs": [
        {
          "internalType": "string",
          "name": "",
          "type": "string"
        }
      ],
      "stateMutability": "pure",
      "type": "function"
    },
    {
      "inputs": [
        {
          "internalType": "uint256",
          "name": "tokenId",
          "type": "uint256"
        }
      ],
      "name": "getApproved",
      "outputs": [
        {
          "internalType": "address",
          "name": "",
          "type": "address"
        }
      ],
      "stateMutability": "view",
      "type": "function"
    },
    {
      "inputs": [
        {
          "internalType": "bytes32",
          "name": "role",
          "type": "bytes32"
        }
      ],
      "name": "getRoleAdmin",
      "outputs": [
        {
          "internalType": "bytes32",
          "name": "",
          "type": "bytes32"
        }
      ],
      "stateMutability": "view",
      "type": "function"
    },
    {
      "inputs": [
        {
          "internalType": "address",
          "name": "_to",
          "type": "address"
        }
      ],
      "name": "grantAdminRole",
      "outputs": [
        {
          "internalType": "address",
          "name": "",
          "type": "address"
        }
      ],
      "stateMutability": "nonpayable",
      "type": "function"
    },
    {
      "inputs": [
        {
          "internalType": "address",
          "name": "_to",
          "type": "address"
        }
      ],
      "name": "grantMinterRole",
      "outputs": [
        {
          "internalType": "address",
          "name": "",
          "type": "address"
        }
      ],
      "stateMutability": "nonpayable",
      "type": "function"
    },
    {
      "inputs": [
        {
          "internalType": "bytes32",
          "name": "role",
          "type": "bytes32"
        },
        {
          "internalType": "address",
          "name": "account",
          "type": "address"
        }
      ],
      "name": "grantRole",
      "outputs": [],
      "stateMutability": "nonpayable",
      "type": "function"
    },
    {
      "inputs": [
        {
          "internalType": "bytes32",
          "name": "role",
          "type": "bytes32"
        },
        {
          "internalType": "address",
          "name": "account",
          "type": "address"
        }
      ],
      "name": "hasRole",
      "outputs": [
        {
          "internalType": "bool",
          "name": "",
          "type": "bool"
        }
      ],
      "stateMutability": "view",
      "type": "function"
    },
    {
      "inputs": [
        {
          "internalType": "address",
          "name": "owner",
          "type": "address"
        },
        {
          "internalType": "address",
          "name": "operator",
          "type": "address"
        }
      ],
      "name": "isApprovedForAll",
      "outputs": [
        {
          "internalType": "bool",
          "name": "",
          "type": "bool"
        }
      ],
      "stateMutability": "view",
      "type": "function"
    },
    {
      "inputs": [
        {
          "internalType": "address",
          "name": "_recipient",
          "type": "address"
        },
        {
          "internalType": "string",
          "name": "_projectName",
          "type": "string"
        },
        {
          "internalType": "string",
          "name": "_passportHash",
          "type": "string"
        }
      ],
      "name": "mintNFT",
      "outputs": [
        {
          "internalType": "uint256",
          "name": "",
          "type": "uint256"
        }
      ],
      "stateMutability": "nonpayable",
      "type": "function"
    },
    {
      "inputs": [],
      "name": "name",
      "outputs": [
        {
          "internalType": "string",
          "name": "",
          "type": "string"
        }
      ],
      "stateMutability": "view",
      "type": "function"
    },
    {
      "inputs": [
        {
          "internalType": "uint256",
          "name": "tokenId",
          "type": "uint256"
        }
      ],
      "name": "ownerOf",
      "outputs": [
        {
          "internalType": "address",
          "name": "",
          "type": "address"
        }
      ],
      "stateMutability": "view",
      "type": "function"
    },
    {
      "inputs": [
        {
          "internalType": "bytes32",
          "name": "role",
          "type": "bytes32"
        },
        {
          "internalType": "address",
          "name": "account",
          "type": "address"
        }
      ],
      "name": "renounceRole",
      "outputs": [],
      "stateMutability": "nonpayable",
      "type": "function"
    },
    {
      "inputs": [
        {
          "internalType": "bytes32",
          "name": "role",
          "type": "bytes32"
        },
        {
          "internalType": "address",
          "name": "account",
          "type": "address"
        }
      ],
      "name": "revokeRole",
      "outputs": [],
      "stateMutability": "nonpayable",
      "type": "function"
    },
    {
      "inputs": [
        {
          "internalType": "address",
          "name": "from",
          "type": "address"
        },
        {
          "internalType": "address",
          "name": "to",
          "type": "address"
        },
        {
          "internalType": "uint256",
          "name": "tokenId",
          "type": "uint256"
        }
      ],
      "name": "safeTransferFrom",
      "outputs": [],
      "stateMutability": "nonpayable",
      "type": "function"
    },
    {
      "inputs": [
        {
          "internalType": "address",
          "name": "from",
          "type": "address"
        },
        {
          "internalType": "address",
          "name": "to",
          "type": "address"
        },
        {
          "internalType": "uint256",
          "name": "tokenId",
          "type": "uint256"
        },
        {
          "internalType": "bytes",
          "name": "_data",
          "type": "bytes"
        }
      ],
      "name": "safeTransferFrom",
      "outputs": [],
      "stateMutability": "nonpayable",
      "type": "function"
    },
    {
      "inputs": [
        {
          "internalType": "address",
          "name": "operator",
          "type": "address"
        },
        {
          "internalType": "bool",
          "name": "approved",
          "type": "bool"
        }
      ],
      "name": "setApprovalForAll",
      "outputs": [],
      "stateMutability": "nonpayable",
      "type": "function"
    },
    {
      "inputs": [
        {
          "internalType": "bytes4",
          "name": "interfaceId",
          "type": "bytes4"
        }
      ],
      "name": "supportsInterface",
      "outputs": [
        {
          "internalType": "bool",
          "name": "",
          "type": "bool"
        }
      ],
      "stateMutability": "view",
      "type": "function"
    },
    {
      "inputs": [],
      "name": "symbol",
      "outputs": [
        {
          "internalType": "string",
          "name": "",
          "type": "string"
        }
      ],
      "stateMutability": "view",
      "type": "function"
    },
    {
      "inputs": [
        {
          "internalType": "uint256",
          "name": "tokenId",
          "type": "uint256"
        }
      ],
      "name": "tokenURI",
      "outputs": [
        {
          "internalType": "string",
          "name": "",
          "type": "string"
        }
      ],
      "stateMutability": "view",
      "type": "function"
    },
    {
      "inputs": [
        {
          "internalType": "address",
          "name": "from",
          "type": "address"
        },
        {
          "internalType": "address",
          "name": "to",
          "type": "address"
        },
        {
          "internalType": "uint256",
          "name": "tokenId",
          "type": "uint256"
        }
      ],
      "name": "transferFrom",
      "outputs": [],
      "stateMutability": "nonpayable",
      "type": "function"
    }
  ],
  "bytecode": "0x60806040523480156200001157600080fd5b50604080518082018252601081526f155390d21052538814185cdcdc1bdc9d60821b602080830191825283518085019094526008845267434841495041535360c01b9084015281519192916200006a91600091620002e7565b50805162000080906001906020840190620002e7565b50620000929150600090503362000144565b620000ad6000805160206200314b8339815191523362000144565b620000c86000805160206200312b8339815191523362000144565b620000f26000805160206200312b8339815191526000805160206200314b83398151915262000154565b6200013e6040518060400160405280601f81526020017f546f6b656e20637265617465642120436f6e74726163742061646d696e3a200081525033620001a960201b62000ca41760201c565b62000431565b620001508282620001f6565b5050565b6000620001618362000282565b600084815260076020526040808220600101859055519192508391839186917fbd79b86ffe0ab8e8776151514217cd7cacd52c909f66475c3af44e129f0b00ff9190a4505050565b620001508282604051602401620001c29291906200038d565b60408051601f198184030181529190526020810180516001600160e01b0390811663319af33360e01b179091526200029716565b620002028282620002b8565b620001505760008281526007602090815260408083206001600160a01b03851684529091529020805460ff191660011790556200023e620002e3565b6001600160a01b0316816001600160a01b0316837f2f8788117e7eff1d82e926ec794901d17c78024a50270940304540a733656f0d60405160405180910390a45050565b60009081526007602052604090206001015490565b80516a636f6e736f6c652e6c6f67602083016000808483855afa5050505050565b60009182526007602090815260408084206001600160a01b0393909316845291905290205460ff1690565b3390565b828054620002f590620003f4565b90600052602060002090601f01602090048101928262000319576000855562000364565b82601f106200033457805160ff191683800117855562000364565b8280016001018555821562000364579182015b828111156200036457825182559160200191906001019062000347565b506200037292915062000376565b5090565b5b8082111562000372576000815560010162000377565b6000604082528351806040840152815b81811015620003bc57602081870181015160608684010152016200039d565b81811115620003ce5782606083860101525b506001600160a01b0393909316602083015250601f91909101601f191601606001919050565b6002810460018216806200040957607f821691505b602082108114156200042b57634e487b7160e01b600052602260045260246000fd5b50919050565b612cea80620004416000396000f3fe608060405234801561001057600080fd5b50600436106101a35760003560e01c806375b238fc116100ee578063b88d4fde11610097578063d539139311610071578063d53913931461034a578063d547741f14610352578063e8a3d48514610365578063e985e9c51461036d576101a3565b8063b88d4fde14610311578063c634b78e14610324578063c87b56dd14610337576101a3565b8063a217fddf116100c8578063a217fddf146102e3578063a22cb465146102eb578063a3ee38ae146102fe576101a3565b806375b238fc146102c057806391d14854146102c857806395d89b41146102db576101a3565b80632f2ff15d1161015057806342842e0e1161012a57806342842e0e146102875780636352211e1461029a57806370a08231146102ad576101a3565b80632f2ff15d1461024e57806336568abe146102615780633dd1eb6114610274576101a3565b8063095ea7b311610181578063095ea7b31461020657806323b872dd1461021b578063248a9ca31461022e576101a3565b806301ffc9a7146101a857806306fdde03146101d1578063081812fc146101e6575b600080fd5b6101bb6101b6366004611dce565b610380565b6040516101c8919061248c565b60405180910390f35b6101d9610393565b6040516101c891906124a0565b6101f96101f4366004611d94565b610425565b6040516101c89190612418565b610219610214366004611d6b565b610471565b005b610219610229366004611c0c565b610509565b61024161023c366004611d94565b610541565b6040516101c89190612497565b61021961025c366004611dac565b610556565b61021961026f366004611dac565b61057a565b6101f9610282366004611bc0565b6105c0565b610219610295366004611c0c565b61068c565b6101f96102a8366004611d94565b6106a7565b6102416102bb366004611bc0565b6106dc565b610241610720565b6101bb6102d6366004611dac565b610744565b6101d961076f565b61024161077e565b6102196102f9366004611cc0565b610783565b61024161030c366004611cfa565b610851565b61021961031f366004611c47565b6109f5565b6101f9610332366004611bc0565b610a34565b6101d9610345366004611d94565b610ad6565b610241610bf7565b610219610360366004611dac565b610c1b565b6101d9610c3a565b6101bb61037b366004611bda565b610c76565b600061038b82610d17565b90505b919050565b6060600080546103a290612b88565b80601f01602080910402602001604051908101604052809291908181526020018280546103ce90612b88565b801561041b5780601f106103f05761010080835404028352916020019161041b565b820191906000526020600020905b8154815290600101906020018083116103fe57829003601f168201915b5050505050905090565b600061043082610d55565b6104555760405162461bcd60e51b815260040161044c906128c6565b60405180910390fd5b506000908152600460205260409020546001600160a01b031690565b600061047c826106a7565b9050806001600160a01b0316836001600160a01b031614156104b05760405162461bcd60e51b815260040161044c906129cc565b806001600160a01b03166104c2610d72565b6001600160a01b031614806104de57506104de8161037b610d72565b6104fa5760405162461bcd60e51b815260040161044c906126c0565b6105048383610d76565b505050565b61051a610514610d72565b82610df1565b6105365760405162461bcd60e51b815260040161044c90612a29565b610504838383610e6e565b60009081526007602052604090206001015490565b61055f82610541565b6105708161056b610d72565b610fa8565b610504838361100c565b610582610d72565b6001600160a01b0316816001600160a01b0316146105b25760405162461bcd60e51b815260040161044c90612a86565b6105bc8282611093565b5050565b60007fa49807205ce4d355092ef5a8a18f56e8913cf4a201fbe287825b095693c217756105ef8161056b610d72565b6106197f9f2df0fed2c77648de5860a4cc508cd0818c85b8b8a1ab4ceeef8d981c8956a684610556565b6106437f9f2df0fed2c77648de5860a4cc508cd0818c85b8b8a1ab4ceeef8d981c8956a684610fa8565b6106826040518060400160405280601881526020017f4d696e74657220726f6c65206772616e74656420746f3a20000000000000000081525084610ca4565b8291505b50919050565b610504838383604051806020016040528060008152506109f5565b6000818152600260205260408120546001600160a01b03168061038b5760405162461bcd60e51b815260040161044c9061277a565b60006001600160a01b0382166107045760405162461bcd60e51b815260040161044c9061271d565b506001600160a01b031660009081526003602052604090205490565b7fa49807205ce4d355092ef5a8a18f56e8913cf4a201fbe287825b095693c2177581565b60009182526007602090815260408084206001600160a01b0393909316845291905290205460ff1690565b6060600180546103a290612b88565b600081565b61078b610d72565b6001600160a01b0316826001600160a01b031614156107bc5760405162461bcd60e51b815260040161044c9061263d565b80600560006107c9610d72565b6001600160a01b03908116825260208083019390935260409182016000908120918716808252919093529120805460ff19169215159290921790915561080d610d72565b6001600160a01b03167f17307eab39ab6107e8899845ad3d59bd9653f200f220920489ca2b5937696c3183604051610845919061248c565b60405180910390a35050565b60007f9f2df0fed2c77648de5860a4cc508cd0818c85b8b8a1ab4ceeef8d981c8956a66108808161056b610d72565b60008585604051602001610895929190611f3e565b60408051601f1981840301815291815281516020928301206000818152600990935291205490915060ff16600114156108cd57600080fd5b6000818152600960205260408120805460ff191660011790556108f06008611118565b9050606086604051602001610905919061214d565b60405160208183030381529060405290506000610944888884604051602001610930939291906121df565b60405160208183030381529060405261111c565b90506000816040516020016109599190612352565b60405160208183030381529060405290506109748a856112c7565b61097e84826112e1565b6109a26040518060600160405280602d8152602001612c88602d9139858c33611325565b6109ac600861139c565b7f53a684fc16367a92e9163601687019a9598c202aed81a6644398d6dd9770577a338b866040516109df9392919061242c565b60405180910390a1509198975050505050505050565b610a06610a00610d72565b83610df1565b610a225760405162461bcd60e51b815260040161044c90612a29565b610a2e848484846113a5565b50505050565b600080610a438161056b610d72565b610a6d7fa49807205ce4d355092ef5a8a18f56e8913cf4a201fbe287825b095693c2177584610556565b610a977fa49807205ce4d355092ef5a8a18f56e8913cf4a201fbe287825b095693c2177584610fa8565b6106826040518060400160405280601781526020017f41646d696e20726f6c65206772616e74656420746f3a2000000000000000000081525084610ca4565b6060610ae182610d55565b610afd5760405162461bcd60e51b815260040161044c90612869565b60008281526006602052604081208054610b1690612b88565b80601f0160208091040260200160405190810160405280929190818152602001828054610b4290612b88565b8015610b8f5780601f10610b6457610100808354040283529160200191610b8f565b820191906000526020600020905b815481529060010190602001808311610b7257829003601f168201915b505050505090506000610ba06113d8565b9050805160001415610bb45750905061038e565b815115610be6578082604051602001610bce929190611f76565b6040516020818303038152906040529250505061038e565b610bef846113ea565b949350505050565b7f9f2df0fed2c77648de5860a4cc508cd0818c85b8b8a1ab4ceeef8d981c8956a681565b610c2482610541565b610c308161056b610d72565b6105048383611093565b60606000610c5060405160200161093090611fa5565b604051602001610c609190612352565b60408051601f1981840301815291905291505090565b6001600160a01b03918216600090815260056020908152604080832093909416825291909152205460ff1690565b6105bc8282604051602401610cba9291906124b3565b60408051601f198184030181529190526020810180517bffffffffffffffffffffffffffffffffffffffffffffffffffffffff167f319af3330000000000000000000000000000000000000000000000000000000017905261146d565b60006001600160e01b031982167f7965db0b00000000000000000000000000000000000000000000000000000000148061038b575061038b8261148e565b6000908152600260205260409020546001600160a01b0316151590565b3390565b6000818152600460205260409020805473ffffffffffffffffffffffffffffffffffffffff19166001600160a01b0384169081179091558190610db8826106a7565b6001600160a01b03167f8c5be1e5ebec7d5bd14f71427d1e84f3dd0314c0f7b2291e5b200ac8c7c3b92560405160405180910390a45050565b6000610dfc82610d55565b610e185760405162461bcd60e51b815260040161044c90612674565b6000610e23836106a7565b9050806001600160a01b0316846001600160a01b03161480610e5e5750836001600160a01b0316610e5384610425565b6001600160a01b0316145b80610bef5750610bef8185610c76565b826001600160a01b0316610e81826106a7565b6001600160a01b031614610ea75760405162461bcd60e51b815260040161044c90612912565b6001600160a01b038216610ecd5760405162461bcd60e51b815260040161044c906125e0565b610ed8838383610504565b610ee3600082610d76565b6001600160a01b0383166000908152600360205260408120805460019290610f0c908490612b2e565b90915550506001600160a01b0382166000908152600360205260408120805460019290610f3a908490612ae3565b9091555050600081815260026020526040808220805473ffffffffffffffffffffffffffffffffffffffff19166001600160a01b0386811691821790925591518493918716917fddf252ad1be2c89b69c2b068fc378daa952ba7f163c4a11628f55a4df523b3ef91a4505050565b610fb28282610744565b6105bc57610fca816001600160a01b03166014611500565b610fd5836020611500565b604051602001610fe6929190612397565b60408051601f198184030181529082905262461bcd60e51b825261044c916004016124a0565b6110168282610744565b6105bc5760008281526007602090815260408083206001600160a01b03851684529091529020805460ff1916600117905561104f610d72565b6001600160a01b0316816001600160a01b0316837f2f8788117e7eff1d82e926ec794901d17c78024a50270940304540a733656f0d60405160405180910390a45050565b61109d8282610744565b156105bc5760008281526007602090815260408083206001600160a01b03851684529091529020805460ff191690556110d4610d72565b6001600160a01b0316816001600160a01b0316837ff6391f5c32d9c69d2a47ea670b442974b53935d1edc7fd64eb21e047a839171b60405160405180910390a45050565b5490565b80516060908061113c57505060408051602081019091526000815261038e565b6000600361114b836002612ae3565b6111559190612afb565b611160906004612b0f565b9050600061116f826020612ae3565b67ffffffffffffffff81111561119557634e487b7160e01b600052604160045260246000fd5b6040519080825280601f01601f1916602001820160405280156111bf576020820181803683370190505b5090506000604051806060016040528060408152602001612c48604091399050600181016020830160005b8681101561124b576003818a01810151603f601282901c8116860151600c83901c8216870151600684901c831688015192909316870151600891821b60ff94851601821b92841692909201901b91160160e01b8352600490920191016111ea565b5060038606600181146112655760028114611291576112b9565b7f3d3d0000000000000000000000000000000000000000000000000000000000006001198301526112b9565b7f3d000000000000000000000000000000000000000000000000000000000000006000198301525b505050918152949350505050565b6105bc8282604051806020016040528060008152506116db565b6112ea82610d55565b6113065760405162461bcd60e51b815260040161044c906127d7565b6000828152600660209081526040909120825161050492840190611a81565b610a2e8484848460405160240161133f94939291906124de565b60408051601f198184030181529190526020810180517bffffffffffffffffffffffffffffffffffffffffffffffffffffffff167feac892810000000000000000000000000000000000000000000000000000000017905261146d565b80546001019055565b6113b0848484610e6e565b6113bc8484848461170e565b610a2e5760405162461bcd60e51b815260040161044c9061254c565b60408051602081019091526000815290565b60606113f582610d55565b6114115760405162461bcd60e51b815260040161044c9061296f565b600061141b6113d8565b9050600081511161143b5760405180602001604052806000815250611466565b8061144584611842565b604051602001611456929190611f76565b6040516020818303038152906040525b9392505050565b80516a636f6e736f6c652e6c6f67602083016000808483855afa5050505050565b60006001600160e01b031982167f80ac58cd0000000000000000000000000000000000000000000000000000000014806114f157506001600160e01b031982167f5b5e139f00000000000000000000000000000000000000000000000000000000145b8061038b575061038b8261195d565b6060600061150f836002612b0f565b61151a906002612ae3565b67ffffffffffffffff81111561154057634e487b7160e01b600052604160045260246000fd5b6040519080825280601f01601f19166020018201604052801561156a576020820181803683370190505b509050600360fc1b8160008151811061159357634e487b7160e01b600052603260045260246000fd5b60200101906001600160f81b031916908160001a9053507f7800000000000000000000000000000000000000000000000000000000000000816001815181106115ec57634e487b7160e01b600052603260045260246000fd5b60200101906001600160f81b031916908160001a9053506000611610846002612b0f565b61161b906001612ae3565b90505b60018111156116bc577f303132333435363738396162636465660000000000000000000000000000000085600f166010811061166a57634e487b7160e01b600052603260045260246000fd5b1a60f81b82828151811061168e57634e487b7160e01b600052603260045260246000fd5b60200101906001600160f81b031916908160001a90535060049490941c936116b581612b71565b905061161e565b5083156114665760405162461bcd60e51b815260040161044c90612517565b6116e5838361198f565b6116f2600084848461170e565b6105045760405162461bcd60e51b815260040161044c9061254c565b6000611722846001600160a01b0316611a7b565b1561183757836001600160a01b031663150b7a0261173e610d72565b8786866040518563ffffffff1660e01b81526004016117609493929190612450565b602060405180830381600087803b15801561177a57600080fd5b505af19250505080156117aa575060408051601f3d908101601f191682019092526117a791810190611dea565b60015b611804573d8080156117d8576040519150601f19603f3d011682016040523d82523d6000602084013e6117dd565b606091505b5080516117fc5760405162461bcd60e51b815260040161044c9061254c565b805181602001fd5b6001600160e01b0319167f150b7a0200000000000000000000000000000000000000000000000000000000149050610bef565b506001949350505050565b60608161186757506040805180820190915260018152600360fc1b602082015261038e565b8160005b8115611891578061187b81612bbd565b915061188a9050600a83612afb565b915061186b565b60008167ffffffffffffffff8111156118ba57634e487b7160e01b600052604160045260246000fd5b6040519080825280601f01601f1916602001820160405280156118e4576020820181803683370190505b5090505b8415610bef576118f9600183612b2e565b9150611906600a86612bd8565b611911906030612ae3565b60f81b81838151811061193457634e487b7160e01b600052603260045260246000fd5b60200101906001600160f81b031916908160001a905350611956600a86612afb565b94506118e8565b6001600160e01b031981167f01ffc9a70000000000000000000000000000000000000000000000000000000014919050565b6001600160a01b0382166119b55760405162461bcd60e51b815260040161044c90612834565b6119be81610d55565b156119db5760405162461bcd60e51b815260040161044c906125a9565b6119e760008383610504565b6001600160a01b0382166000908152600360205260408120805460019290611a10908490612ae3565b9091555050600081815260026020526040808220805473ffffffffffffffffffffffffffffffffffffffff19166001600160a01b03861690811790915590518392907fddf252ad1be2c89b69c2b068fc378daa952ba7f163c4a11628f55a4df523b3ef908290a45050565b3b151590565b828054611a8d90612b88565b90600052602060002090601f016020900481019282611aaf5760008555611af5565b82601f10611ac857805160ff1916838001178555611af5565b82800160010185558215611af5579182015b82811115611af5578251825591602001919060010190611ada565b50611b01929150611b05565b5090565b5b80821115611b015760008155600101611b06565b600067ffffffffffffffff80841115611b3557611b35612c18565b604051601f8501601f191681016020018281118282101715611b5957611b59612c18565b604052848152915081838501861015611b7157600080fd5b8484602083013760006020868301015250509392505050565b80356001600160a01b038116811461038e57600080fd5b600082601f830112611bb1578081fd5b61146683833560208501611b1a565b600060208284031215611bd1578081fd5b61146682611b8a565b60008060408385031215611bec578081fd5b611bf583611b8a565b9150611c0360208401611b8a565b90509250929050565b600080600060608486031215611c20578081fd5b611c2984611b8a565b9250611c3760208501611b8a565b9150604084013590509250925092565b60008060008060808587031215611c5c578081fd5b611c6585611b8a565b9350611c7360208601611b8a565b925060408501359150606085013567ffffffffffffffff811115611c95578182fd5b8501601f81018713611ca5578182fd5b611cb487823560208401611b1a565b91505092959194509250565b60008060408385031215611cd2578182fd5b611cdb83611b8a565b915060208301358015158114611cef578182fd5b809150509250929050565b600080600060608486031215611d0e578283fd5b611d1784611b8a565b9250602084013567ffffffffffffffff80821115611d33578384fd5b611d3f87838801611ba1565b93506040860135915080821115611d54578283fd5b50611d6186828701611ba1565b9150509250925092565b60008060408385031215611d7d578182fd5b611d8683611b8a565b946020939093013593505050565b600060208284031215611da5578081fd5b5035919050565b60008060408385031215611dbe578182fd5b82359150611c0360208401611b8a565b600060208284031215611ddf578081fd5b813561146681612c2e565b600060208284031215611dfb578081fd5b815161146681612c2e565b60008151808452611e1e816020860160208601612b45565b601f01601f19169290920160200192915050565b60008151611e44818560208601612b45565b9290920192915050565b7f222c000000000000000000000000000000000000000000000000000000000000815260020190565b7f68747470733a2f2f697066732e696f2f697066732f516d656f35773555574d5481527f6945567747664747737546316d33585948514a7368706a4b37505438367a7a7360208201527f7151420000000000000000000000000000000000000000000000000000000000604082015260430190565b7f227d000000000000000000000000000000000000000000000000000000000000815260020190565b7f7d00000000000000000000000000000000000000000000000000000000000000815260010190565b60006bffffffffffffffffffffffff198460601b1682528251611f68816014850160208701612b45565b919091016014019392505050565b60008351611f88818460208801612b45565b835190830190611f9c818360208801612b45565b01949350505050565b60007f7b226e616d65223a2022554e434841494e2050617373706f72743a20222c000082527f226465736372697074696f6e223a202245616368206f66207468652070617373601e8301527f706f72747320696e2074686520636f6c6c656374696f6e206365727469666965603e8301527f7320000000000000000000000000000000000000000000000000000000000000605e8301527f697473206f776e6572277320636f6d706c6574696f6e206f662061207370656360608301527f6966696320554e434841494e207765623320646576656c6f706d656e7420707260808301527f6f6a6563742e2049742070726f76696465732069747320686f6c64657273206960a08301527f6d6d757461626c6520616e64207065726d616e656e742070726f6f66206f662060c08301527f746865697220626c6f636b636861696e20656e67696e656572696e672063617060e08301527f6162696c69746965732e000000000000000000000000000000000000000000006101008301526c1116101134b6b0b3b2911d101160991b61010a83015261038b6121486101178401611e77565b611eec565b60007f2261747472696275746573223a205b7b2274726169745f74797065223a20225582527f4e434841494e2050726f6a656374222c202276616c7565223a20220000000000602083015282516121ab81603b850160208701612b45565b7f227d5d0000000000000000000000000000000000000000000000000000000000603b939091019283015250603e01919050565b60007f7b226e616d65223a20220000000000000000000000000000000000000000000082527f554e434841494e2050617373706f72743a200000000000000000000000000000600a830152845161223d81601c850160208901612b45565b7f222c20226465736372697074696f6e223a202200000000000000000000000000601c918401918201527f496d6d757461626c6520616e64207065726d616e656e742070726f6f66206f66602f8201527f20796f757220554e434841494e2070726f6a65637420636f6d706c6574696f6e604f8201527f2e00000000000000000000000000000000000000000000000000000000000000606f8201526c1116101134b6b0b3b2911d101160991b60708201527f68747470733a2f2f697066732e696f2f697066732f0000000000000000000000607d8201528451612328816092840160208901612b45565b61234761234261233c609284860101611e4e565b87611e32565b611f15565b979650505050505050565b60007f646174613a6170706c69636174696f6e2f6a736f6e3b6261736536342c0000008252825161238a81601d850160208701612b45565b91909101601d0192915050565b60007f416363657373436f6e74726f6c3a206163636f756e7420000000000000000000825283516123cf816017850160208801612b45565b7f206973206d697373696e6720726f6c6520000000000000000000000000000000601791840191820152835161240c816028840160208801612b45565b01602801949350505050565b6001600160a01b0391909116815260200190565b6001600160a01b039384168152919092166020820152604081019190915260600190565b60006001600160a01b038087168352808616602084015250836040830152608060608301526124826080830184611e06565b9695505050505050565b901515815260200190565b90815260200190565b6000602082526114666020830184611e06565b6000604082526124c66040830185611e06565b90506001600160a01b03831660208301529392505050565b6000608082526124f16080830187611e06565b6020830195909552506001600160a01b0392831660408201529116606090910152919050565b6020808252818101527f537472696e67733a20686578206c656e67746820696e73756666696369656e74604082015260600190565b60208082526032908201527f4552433732313a207472616e7366657220746f206e6f6e20455243373231526560408201527f63656976657220696d706c656d656e7465720000000000000000000000000000606082015260800190565b6020808252601c908201527f4552433732313a20746f6b656e20616c7265616479206d696e74656400000000604082015260600190565b60208082526024908201527f4552433732313a207472616e7366657220746f20746865207a65726f2061646460408201527f7265737300000000000000000000000000000000000000000000000000000000606082015260800190565b60208082526019908201527f4552433732313a20617070726f766520746f2063616c6c657200000000000000604082015260600190565b6020808252602c908201527f4552433732313a206f70657261746f7220717565727920666f72206e6f6e657860408201526b34b9ba32b73a103a37b5b2b760a11b606082015260800190565b60208082526038908201527f4552433732313a20617070726f76652063616c6c6572206973206e6f74206f7760408201527f6e6572206e6f7220617070726f76656420666f7220616c6c0000000000000000606082015260800190565b6020808252602a908201527f4552433732313a2062616c616e636520717565727920666f7220746865207a6560408201527f726f206164647265737300000000000000000000000000000000000000000000606082015260800190565b60208082526029908201527f4552433732313a206f776e657220717565727920666f72206e6f6e657869737460408201527f656e7420746f6b656e0000000000000000000000000000000000000000000000606082015260800190565b6020808252602e908201527f45524337323155524953746f726167653a2055524920736574206f66206e6f6e60408201527f6578697374656e7420746f6b656e000000000000000000000000000000000000606082015260800190565b6020808252818101527f4552433732313a206d696e7420746f20746865207a65726f2061646472657373604082015260600190565b60208082526031908201527f45524337323155524953746f726167653a2055524920717565727920666f722060408201527f6e6f6e6578697374656e7420746f6b656e000000000000000000000000000000606082015260800190565b6020808252602c908201527f4552433732313a20617070726f76656420717565727920666f72206e6f6e657860408201526b34b9ba32b73a103a37b5b2b760a11b606082015260800190565b60208082526029908201527f4552433732313a207472616e73666572206f6620746f6b656e2074686174206960408201527f73206e6f74206f776e0000000000000000000000000000000000000000000000606082015260800190565b6020808252602f908201527f4552433732314d657461646174613a2055524920717565727920666f72206e6f60408201527f6e6578697374656e7420746f6b656e0000000000000000000000000000000000606082015260800190565b60208082526021908201527f4552433732313a20617070726f76616c20746f2063757272656e74206f776e6560408201527f7200000000000000000000000000000000000000000000000000000000000000606082015260800190565b60208082526031908201527f4552433732313a207472616e736665722063616c6c6572206973206e6f74206f60408201527f776e6572206e6f7220617070726f766564000000000000000000000000000000606082015260800190565b6020808252602f908201527f416363657373436f6e74726f6c3a2063616e206f6e6c792072656e6f756e636560408201527f20726f6c657320666f722073656c660000000000000000000000000000000000606082015260800190565b60008219821115612af657612af6612bec565b500190565b600082612b0a57612b0a612c02565b500490565b6000816000190483118215151615612b2957612b29612bec565b500290565b600082821015612b4057612b40612bec565b500390565b60005b83811015612b60578181015183820152602001612b48565b83811115610a2e5750506000910152565b600081612b8057612b80612bec565b506000190190565b600281046001821680612b9c57607f821691505b6020821081141561068657634e487b7160e01b600052602260045260246000fd5b6000600019821415612bd157612bd1612bec565b5060010190565b600082612be757612be7612c02565b500690565b634e487b7160e01b600052601160045260246000fd5b634e487b7160e01b600052601260045260246000fd5b634e487b7160e01b600052604160045260246000fd5b6001600160e01b031981168114612c4457600080fd5b5056fe4142434445464748494a4b4c4d4e4f505152535455565758595a6162636465666768696a6b6c6d6e6f707172737475767778797a303132333435363738392b2f494420257320686173206265656e206d696e74656420746f2025732028696e6974696174656420627920257329a264697066735822122098ea289865e55d487292db570fca610cf0f6cf86a8258e1ae81d0516adfaa24864736f6c634300080000339f2df0fed2c77648de5860a4cc508cd0818c85b8b8a1ab4ceeef8d981c8956a6a49807205ce4d355092ef5a8a18f56e8913cf4a201fbe287825b095693c21775",
  "linkReferences": {},
  "deployedLinkReferences": {}
}